:100000000C942A000C943F000C943F000C943F0089
:100010000C943F000C943F000C943F000C943F0064
:100020000C943F000C943F000C943F000C943F0054
:100030000C943F000C943F000C943F000C943F0044
:100040000C943F000C943F000C943F000C943F0034
:100050000C943F0011241FBECFE5D8E0DEBFCDBF1A
:1000600010E0A0E6B0E0E0EDFCE002C005900D92EB
:10007000A437B107D9F70E9444020C9466060C9489
:10008000000040E00E94480008950E942801089561
:10009000823419F118F4813439F008958334B1F1C0
:1000A000843409F44CC00895413059F42AB381E0F6
:1000B00090E002C0880F991F6A95E2F7822B8ABBF5
:1000C00008952AB381E090E002C0880F991F6A95D5
:1000D000E2F7809582238ABB0895413059F427B313
:1000E00081E090E002C0880F991F6A95E2F7822BA9
:1000F00087BB089527B381E090E002C0880F991F65
:100100006A95E2F78095822387BB0895413059F4C0
:1001100024B381E090E002C0880F991F6A95E2F74E
:10012000822B84BB089524B381E090E002C0880F45
:10013000991F6A95E2F78095822384BB0895413028
:1001400059F421B381E090E002C0880F991F6A95AD
:10015000E2F7822B81BB089521B381E090E002C0D9
:10016000880F991F6A95E2F78095822381BB0895D5
:10017000823419F118F4813439F008958334B1F1DF
:10018000843409F44CC00895413059F42BB381E014
:1001900090E002C0880F991F6A95E2F7822B8BBB13
:1001A00008952BB381E090E002C0880F991F6A95F3
:1001B000E2F7809582238BBB0895413059F428B330
:1001C00081E090E002C0880F991F6A95E2F7822BC8
:1001D00088BB089528B381E090E002C0880F991F82
:1001E0006A95E2F78095822388BB0895413059F4DF
:1001F00025B381E090E002C0880F991F6A95E2F76D
:10020000822B85BB089525B381E090E002C0880F62
:10021000991F6A95E2F78095822385BB0895413046
:1002200059F422B381E090E002C0880F991F6A95CB
:10023000E2F7822B82BB089522B381E090E002C0F6
:10024000880F991F6A95E2F78095822382BB0895F3
:100250008234D9F018F4813431F04DC0833439F14F
:100260008434B9F148C029B381E090E0062E02C081
:10027000880F991F0A94E2F730E08223932302C08B
:10028000959587956A95E2F7089526B381E090E009
:10029000062E02C0880F991F0A94E2F730E08223ED
:1002A000932302C0959587956A95E2F7089523B345
:1002B00081E090E0062E02C0880F991F0A94E2F7B1
:1002C00030E08223932302C0959587956A95E2F7E3
:1002D000089520B381E090E0062E02C0880F991F98
:1002E0000A94E2F730E08223932302C09595879524
:1002F0006A95E2F7089580E00895823459F018F481
:10030000813431F00895833439F0843439F008951C
:100310006ABB089567BB089564BB089561BB0895E7
:10032000823459F018F4813431F00895833439F06F
:10033000843439F008956BBB089568BB089565BB9C
:10034000089562BB089541E060E082E40E94B80035
:100350008FE99FE00197F1F700C0000040E060E006
:1003600082E40E94B8008FE99FE00197F1F700C096
:10037000000008950E94900140E061E082E40E9444
:10038000B8000E94A3018FEC97E00197F1F700C03D
:10039000000008951F93CF93DF93C82F162FD42FFB
:1003A0002FEF81EE94E0215080409040E1F700C0B3
:1003B00000006FEF8C2F0E947D0141E06D2F812F97
:1003C0000E94480061E06D0F41E0812F0E944800CB
:1003D00062E06D0F41E0812F0E94480068E38C2F9E
:1003E0000E94BA0161E08C2F0E94BA018FE19EE465
:1003F0000197F1F700C000006EE08C2F0E94BA0157
:1004000066E08C2F0E94BA01DF91CF911F91089571
:100410000E94900141E061E082E40E94B8000E94E5
:10042000A3018FEC97E00197F1F700C00000089559
:100430001F93CF93DF93EB016881662341F0182F60
:100440002196812F0E94080269916111FACFDF91F4
:10045000CF911F9108959FEF960F923070F49FEF08
:10046000940F903160F4613019F42FE7240F08C025
:10047000623031F42FEB240F03C020E801C020E8E4
:10048000622F0E94BA010895CF93DF93CDB7DEB7F4
:100490002A970FB6F894DEBF0FBECDBF40E050E004
:1004A00062E481E40E94CA0163E082E40E944100A8
:1004B00064E082E40E94410065E082E40E94410021
:1004C00066E082E40E94410067E082E40E9441000D
:1004D00060E670E081E40E94180249E061E081E496
:1004E0000E942B0264E670E081E40E94180241E061
:1004F00062E081E40E942B0268E670E081E40E94E1
:10050000180249E062E081E40E942B026CE670E090
:1005100081E40E941802612C712C812C912CA12C59
:10052000B12CC12CD12C0F2EF0E7EF2EF0E0FF2ED6
:10053000F02D8E010F5F1F4F63E082E40E944500A3
:10054000813021F52FEFC21AD20ADF92CF92FF92AB
:10055000EF921F930F930E947C0343E061E081E4DC
:100560000E942B02B80181E40E9418028FEF91EEE5
:1005700024E0815090402040E1F700C000000F903F
:100580000F900F900F900F900F90D6CF64E082E401
:100590000E944500813021F58FEFA81AB80ABF925A
:1005A000AF92FF92EF921F930F930E947C034BE058
:1005B00061E081E40E942B02B80181E40E941802EC
:1005C0009FEF21EE84E0915020408040E1F700C091
:1005D00000000F900F900F900F900F900F90ACCFE6
:1005E00065E082E40E944500813021F59FEF891A81
:1005F000990A9F928F92FF92EF921F930F930E94FE
:100600007C0343E062E081E40E942B02B80181E4B4
:100610000E9418022FEF81EE94E02150804090401C
:10062000E1F700C000000F900F900F900F900F9017
:100630000F9082CF66E082E40E944500813021F570
:100640002FEF621A720A7F926F92FF92EF921F93BE
:100650000F930E947C034BE062E081E40E942B0236
:10066000B80181E40E9418028FEF91EE24E08150DE
:1006700090402040E1F700C000000F900F900F90D5
:100680000F900F900F9058CF67E082E40E944500D2
:10069000813009F051CF40E061E081E40E942B02FB
:1006A00060E670E081E40E94180249E061E081E4C4
:1006B0000E942B0264E670E081E40E94180241E08F
:1006C00062E081E40E942B0268E670E081E40E940F
:1006D000180249E062E081E40E942B026CE670E0BF
:1006E00081E40E941802612C712C812C912CA12C88
:1006F000B12CC12CD12C20CFAEE0B0E0E2E8F3E089
:100700000C943D060D891E8986E08C831A8309832B
:100710008FEF9FE79E838D83AE01475E5F4F6F89AA
:10072000788DCE0101960E949E03EF81F885E00F3F
:10073000F11F10822E96E4E00C945906ABE0B0E075
:10074000E4EAF3E00C942F066C017B018A01FC01C2
:1007500017821682838181FFCCC1CE0101963C01B4
:10076000F6019381F70193FD859193FF81917F01BC
:10077000882309F4BAC1853239F493FD859193FF3A
:1007800081917F01853229F4B60190E00E949505A0
:10079000E7CF912C212C312CFFE1F315D8F08B32CF
:1007A00079F038F4803279F08332A1F4232D20617E
:1007B0001DC08D3261F0803369F4232D216016C095
:1007C000832D8260382EE32DE4603E2E2AC0F32D67
:1007D000F8601DC037FC2DC020ED280F2A3040F0F6
:1007E0008E32B9F436FC81C1232D2064322E19C01B
:1007F00036FE06C08AE0989E200D1124922E11C06C
:10080000EAE02E9E200D1124222EF32DF0623F2EC1
:1008100008C08C3621F4832D8068382E02C08836BB
:1008200041F4F70193FD859193FF81917F0181113F
:10083000B3CF982F9F7D9554933028F40C5F1F4FB2
:100840009FE399830DC0833631F0833771F0833590
:1008500009F059C021C0F801808189830E5F1F4FC4
:1008600088248394912C530113C02801F2E04F0E89
:10087000511CF801A080B18036FE03C0692D70E0E4
:1008800002C06FEF7FEFC5010E948A054C01820113
:10089000F32DFF773F2E16C0280122E0420E511C97
:1008A000F801A080B18036FE03C0692D70E002C05F
:1008B0006FEF7FEFC5010E947F054C01F32DF068BB
:1008C0003F2E820133FC1BC0822D90E088169906D2
:1008D000B0F4B60180E290E00E9495052A94F4CF2E
:1008E000F50137FC859137FE81915F01B60190E0FB
:1008F0000E94950521102A9421E0821A9108811402
:10090000910471F7E8C0843611F0893641F5F80199
:1009100037FE07C060817181828193810C5F1F4F18
:1009200008C060817181072E000C880B990B0E5F47
:100930001F4FF32DFF763F2E97FF09C090958095AE
:10094000709561957F4F8F4F9F4FF0683F2E2AE043
:1009500030E0A3010E94D105882E861845C0853756
:1009600031F4232D2F7EB22E2AE030E025C0932DC6
:10097000997FB92E8F36C1F018F4883579F0B5C05B
:10098000803719F0883721F0B0C0E92FE061BE2E22
:10099000B4FE0DC0FB2DF460BF2E09C034FE0AC0AA
:1009A000292F2660B22E06C028E030E005C020E1E5
:1009B00030E002C020E132E0F801B7FE07C06081FC
:1009C0007181828193810C5F1F4F06C060817181AC
:1009D00080E090E00E5F1F4FA3010E94D105882E9A
:1009E0008618FB2DFF773F2E36FE0DC0232D2E7F60
:1009F000A22E891458F434FE0BC032FC09C0832D9A
:100A00008E7EA82E05C0B82CA32C03C0B82C01C024
:100A1000B92CA4FE0FC0FE01E80DF11D80818033CA
:100A200021F49A2D997EA92E09C0A2FE06C0B39486
:100A3000B39404C08A2D867809F0B394A3FC11C046
:100A4000A0FE06C0B21488F4280C922C9B180EC08D
:100A5000B21460F4B60180E290E00E949505B39470
:100A6000F7CFB21418F42B1802C0982C212CA4FE36
:100A700010C0B60180E390E00E949505A2FE17C069
:100A8000A1FC03C088E790E002C088E590E0B601D1
:100A90000CC08A2D867859F0A1FE02C08BE201C0FD
:100AA00080E2A7FC8DE2B60190E00E9495058914D2
:100AB00038F4B60180E390E00E9495059A94F7CF50
:100AC0008A94F301E80DF11D8081B60190E00E9447
:100AD00095058110F5CF222009F442CEB60180E2BF
:100AE00090E00E9495052A94F6CFF60186819781C1
:100AF00002C08FEF9FEF2B96E2E10C944B06FC01B6
:100B00000590615070400110D8F7809590958E0F38
:100B10009F1F0895FC016150704001900110D8F7AB
:100B2000809590958E0F9F1F08950F931F93CF93DD
:100B3000DF93FB01238121FD03C08FEF9FEF2CC0CA
:100B400022FF16C046815781248135814217530701
:100B500044F4A081B1819D012F5F3F4F31832083F9
:100B60008C93268137812F5F3F4F3783268314C0B4
:100B70008B01EC01FB010084F185E02D0995892BA7
:100B8000E1F6D80116968D919C91179701961796CC
:100B90009C938E931697CE01DF91CF911F910F9169
:100BA0000895FA01AA27283051F1203181F1E89403
:100BB0006F936E7F6E5F7F4F8F4F9F4FAF4FB1E050
:100BC0003ED0B4E03CD0670F781F891F9A1FA11D4B
:100BD000680F791F8A1F911DA11D6A0F711D811D4C
:100BE000911DA11D20D009F468943F912AE0269F11
:100BF00011243019305D3193DEF6CF010895462F70
:100C00004770405D4193B3E00FD0C9F7F6CF462F50
:100C10004F70405D4A3318F0495D31FD40524193B9
:100C200002D0A9F7EACFB4E0A69597958795779576
:100C30006795BA95C9F700976105710508959B01FD
:100C4000AC010A2E06945795479537952795BA9586
:100C5000C9F7620F731F841F951FA01D08952F925F
:100C60003F924F925F926F927F928F929F92AF923C
:100C7000BF92CF92DF92EF92FF920F931F93CF9389
:100C8000DF93CDB7DEB7CA1BDB0B0FB6F894DEBF20
:100C90000FBECDBF09942A88398848885F846E8446
:100CA0007D848C849B84AA84B984C884DF80EE8090
:100CB000FD800C811B81AA81B981CE0FD11D0FB699
:100CC000F894DEBF0FBECDBFED010895F894FFCFBD
:100CD000413D3000423D3000433D3000443D300056
:040CE0002564000087
:00000001FF
